:100000000C9434000C9470000C9451000C9451002A
:100010000C9451000C9451000C9451000C9451001C
:100020000C9451000C9451000C9451000C9451000C
:100030000C9451000C9451000C9451000C945100FC
:100040000C9451000C9451000C9451000C945100EC
:100050000C9451000C9451000C9451000C945100DC
:100060000C9451000C94510011241FBECFEFD8E026
:10007000DEBFCDBF11E0A0E0B1E0E8E9FBE002C0E7
:1000800005900D92A837B107D9F711E0A8E7B1E0C4
:1000900001C01D92AE39B107E1F70E94D1010C9465
:1000A000CA050C94000080917C00816480937C00E0
:1000B00080917A00836C80937A0080917A0086FD2B
:1000C000FCCF2091780030917900C901089588E033
:1000D0008AB9E89AE9E6F0E080818160808308953A
:1000E0001F920F920FB60F9211248F939F938091BE
:1000F000800190918101892B61F48091B10087602A
:100100008093B10081E090E0909381018093800121
:100110000FC01092B1008091B20090E090938301E3
:10012000809382011092B20010928101109280019E
:100130009F918F910F900FBE0F901F901895E1EC3B
:10014000F0E0808188618083E2ECF0E0808186606D
:10015000808387E68093C40008958091C00087FF64
:10016000FCCF8091C6000895982F8091C00085FF34
:10017000FCCF9093C6008091C00086FFFCCF08950D
:100180001F93CF93DF93EC0110E003C00E94B400F3
:100190001F5FFE01E10FF11D80818823B9F7DF9118
:1001A000CF911F91089593EA94BD51E055BD90E61B
:1001B0009AB999EA909380005093810096E094B99F
:1001C00087BD70E0709389006093880048BD30E07F
:1001D00030938B0020938A0008950F931F935B9AAE
:1001E00080E58A95F1F75B98209182013091830137
:1001F000309379012093780100D000D000D0EDB782
:10020000FEB731960EE811E0ADB7BEB712961C935B
:100210000E93119780E091E093838283358324834A
:100220000E94CE028DB79EB706960FB6F8949EBF79
:100230000FBE8DBFC8010E94C000809178019091CF
:10024000790140971CF48EE091E002C087E191E0D3
:100250000E94C0001F910F9108950F931F93CF9399
:10026000DF9387B1886387B9429AC0E0D0E000E9A4
:1002700011E0439A8CE291E0F8013197F1F7019790
:10028000D9F70E9453009091780080917900892BD2
:1002900080937A0110927B0190E064E871E04AE07B
:1002A00050E00E94AD0218B8449A8CE291E0F80147
:1002B0003197F1F70197D9F70E9453009091780098
:1002C00080917900892B80937C0110927D0190E0D0
:1002D00064E871E04AE050E00E94AD0218B8459A27
:1002E0008CE291E0F8013197F1F70197D9F70E947C
:1002F00053009091780080917900892B80937E0142
:1003000010927F0190E064E871E04AE050E00E94C2
:10031000AD0218B82196C431D10509F0AACF2091B9
:100320007A0130917B0140917C0150917D0124172D
:10033000350754F480917E0190917F012817390789
:1003400084F483E291E01CC04217530754F4809177
:100350007E0190917F01481759071CF48FE291E0CC
:100360000FC080917E0190917F018217930734F432
:10037000841795071CF48DE391E002C08AE491E0B4
:100380000E94C0008AE00E94B4008CE591E00E94C7
:10039000C0008AE00E94B400DF91CF911F910F91BD
:1003A00008950F931F93CF93DF938091C1008861CD
:1003B0008093C1008091C20086608093C20087E66E
:1003C0008093C40088E08AB9E89A809169008160CE
:1003D00080936900789420E23EE400E911E005C0D2
:1003E000C8010197F1F72150304021153105C1F7BF
:1003F00080E06EE64DE720E00E94D3000E94ED0011
:100400000E942D010E94ED000E942D018DE76EE6F5
:1004100040E020E00E94D30088E99AE3F801319798
:10042000F1F70197D9F780E06EE64DE720E00E94F2
:10043000D3000E94ED000E942D010E94ED000E9459
:100440002D0180E060E04EE62DE70E94D30088E9B0
:100450009AE3F8013197F1F70197D9F780E06EE65A
:100460004DE720E00E94D3000E94ED000E942D0184
:100470000E94ED000E942D0180E060E04EE62DE735
:100480000E94D30088E99AE3F8013197F1F70197C8
:10049000D9F780E06EE64DE720E00E94D300C0E08F
:1004A000D0E00E94ED000E942D012196C430D105BC
:1004B000C1F780E060E04EE62DE70E94D30088E9B6
:1004C0009AE3F8013197F1F70197D9F780E06EE6EA
:1004D0004DE720E00E94D3000E94ED000E942D0114
:1004E0000E94ED000E942D0180E060E04EE62DE7C5
:1004F0000E94D30088E99AE3F8013197F1F7019758
:10050000D9F780E06EE64DE720E00E94D3000E941C
:10051000ED000E942D010E94ED000E942D018DE74B
:100520006EE640E020E00E94D30088E99AE3F801FB
:100530003197F1F70197D9F780E06EE64DE720E0BB
:100540000E94D3000E94ED000E942D010E94ED0048
:100550000E942D0120E23EE443CFFB019F01E8947D
:100560004230C4F04532B4F44A3029F497FB1EF40B
:10057000909581959F4F642F77270E947F05805D1E
:100580008A330CF0895D8193CB010097A1F716F4B3
:100590005DE251931082C9010C94E504AEE0B0E035
:1005A000E4EDF2E00C94A1050D891E8986E08C83B0
:1005B0001A8309838FEF9FE79E838D839E01275EB9
:1005C0003F4FCE0101966F89788DA9010E94F202FA
:1005D0002F813885020F131FF80110822E96E4E058
:1005E0000C94BD05ABE0B0E0E8EFF2E00C949305AD
:1005F0003C012B015A01FC0117821682838181FD87
:1006000003C06FEF7FEFC6C19AE0892E1E010894E8
:10061000211C311CF3012381F20123FD859123FF6D
:1006200081912F01882309F4B2C1853239F423FD69
:10063000859123FF81912F01853229F490E0B30148
:100640000E94F504E7CF982FFF24EE249924FFE1C0
:10065000FF15D0F09B3269F09C3228F4903259F0AB
:10066000933291F40EC09D3249F0903369F441E029
:1006700024C052E0F52A84E0F82A28C098E0F92A3C
:1006800025C0E0E1FE2A22C0F7FC29C0892F805353
:100690008A3070F4F6FE05C0989C902C1124980EB8
:1006A00015C0E89CE02C1124E80EF0E2FF2A0EC0F1
:1006B0009E3229F4F6FC6BC140E4F42A07C09C3654
:1006C00019F450E8F52A02C0983649F4F20123FDE6
:1006D000959123FF91912F01992309F0B8CF892F8C
:1006E0008554833018F08052833038F444E050E071
:1006F000A40EB51E5FE359830FC0933631F09337D4
:1007000079F0933509F056C020C0F50180818983C6
:1007100042E050E0A40EB51E610101E010E012C0FD
:10072000F501C080D180F6FC03C06FEF7FEF02C0FF
:10073000692D70E042E050E0A40EB51EC6010E9493
:10074000DA048C015FE7F52214C0F501C080D18086
:10075000F6FC03C06FEF7FEF02C0692D70E042E04E
:1007600050E0A40EB51EC6010E94CF048C0150E8D3
:10077000F52AF3FE07C01AC080E290E0B3010E94A0
:10078000F504EA948E2D90E008171907A8F30EC01F
:10079000F601F7FC8591F7FE81916F0190E0B301BE
:1007A0000E94F504E110EA94015010400115110572
:1007B00079F7EAC0943611F0993669F5F7FE08C06A
:1007C000F501208131814281538184E090E00AC0AB
:1007D000F501808191819C01442737FD4095542F7C
:1007E00082E090E0A80EB91E9FE6F92257FF09C0EB
:1007F00050954095309521953F4F4F4F5F4FE0E822
:10080000FE2ACA01B901A1012AE030E00E942105B7
:10081000D82ED21840C0953729F41F2D1F7E2AE00C
:1008200030E01DC01F2D197F9F3661F0903720F4F6
:10083000983509F0ACC00FC0903739F0983709F0FF
:10084000A6C004C028E030E00AC0106114FD1460A6
:1008500020E130E004C014FD166020E132E017FF13
:1008600008C0F501608171818281938144E050E08C
:1008700008C0F50180819181BC0180E090E042E0F8
:1008800050E0A40EB51EA1010E942105D82ED21859
:100890008FE7F82EF122F6FE0BC05EEFF522D91499
:1008A00038F4F4FE07C0F2FC05C08FEEF82202C057
:1008B0001D2D01C0192DF4FE0DC0FE01ED0DF11D21
:1008C0008081803319F499EEF92208C01F5FF2FE8F
:1008D00005C003C08F2D867809F01F5F0F2DF3FC34
:1008E00014C0F0FE0FC01E1510F09D2C0BC09D2CE7
:1008F0009E0C911A1E2D06C080E290E0B3010E946A
:10090000F5041F5F1E15C0F304C01E1510F4E11A94
:1009100001C0EE2404FF0FC080E390E0B3010E9409
:10092000F50402FF1DC001FD03C088E790E00EC082
:1009300088E590E00BC0802F867891F001FF02C01F
:100940008BE201C080E2F7FC8DE290E0B3010E94EF
:10095000F50406C080E390E0B3010E94F5049A9488
:10096000D914C0F3DA94F101ED0DF11D808190E00E
:10097000B3010E94F504DD20A9F706C080E290E0F3
:10098000B3010E94F504EA94EE20C1F743CEF301CF
:1009900066817781CB012B96E2E10C94AF05FC01D7
:1009A0000590615070400110D8F7809590958E0F9A
:1009B0009F1F0895FC016150704001900110D8F70D
:1009C000809590958E0F9F1F0895DC01FC01672F85
:1009D00071917723E1F7329704C07C916D93708316
:1009E0006291AE17BF07C8F308950F931F93CF937B
:1009F000DF938C01EB018B8181FF1BC082FF0DC057
:100A00002E813F818C819D812817390764F4E8810C
:100A1000F9810193F983E88306C0E885F985802F81
:100A20000995892B31F48E819F8101969F838E8356
:100A300002C00FEF1FEFC801DF91CF911F910F91FF
:100A40000895FA01AA27283051F1203181F1E89464
:100A50006F936E7F6E5F7F4F8F4F9F4FAF4FB1E0B1
:100A60003ED0B4E03CD0670F781F891F9A1FA11DAC
:100A7000680F791F8A1F911DA11D6A0F711D811DAD
:100A8000911DA11D20D009F468943F912AE0269F72
:100A900011243019305D3193DEF6CF010895462FD1
:100AA0004770405D4193B3E00FD0C9F7F6CF462FB2
:100AB0004F70405D4A3318F0495D31FD405241931B
:100AC00002D0A9F7EACFB4E0A695979587957795D8
:100AD0006795BA95C9F700976105710508959B015F
:100AE000AC010A2E06945795479537952795BA95E8
:100AF000C9F7620F731F841F951FA01D0895AA1BBD
:100B0000BB1B51E107C0AA1FBB1FA617B70710F0F8
:100B1000A61BB70B881F991F5A95A9F7809590952A
:100B2000BC01CD0108952F923F924F925F926F9238
:100B30007F928F929F92AF92BF92CF92DF92EF926D
:100B4000FF920F931F93CF93DF93CDB7DEB7CA1BEE
:100B5000DB0B0FB6F894DEBF0FBECDBF09942A8819
:100B6000398848885F846E847D848C849B84AA84C1
:100B7000B984C884DF80EE80FD800C811B81AA814E
:100B8000B981CE0FD11D0FB6F894DEBF0FBECDBF19
:080B9000ED010895F894FFCF78
:100B98002064697374616E63653D202564002020BC
:100BA80077616C6C200A0020206E6F2077616C6C76
:100BB800200A00636F6C6F72202D207265640063D9
:100BC8006F6C6F72202D20677265656E00636F6CA5
:100BD8006F72202D20626C7565006E6F20737065D2
:100BE800636966696320636F6C6F72002F2F2F2F04
:100BF8002F2F2F2F2F2F2F2F2F2F2F2F2F2F2F2FFD
:080C08002F2F2F2F2F2F2F009B
:00000001FF
